{
  "contractName": "Wallet",
  "abi": [
    {
      "inputs": [
        {
          "internalType": "address",
          "name": "_comptroller",
          "type": "address"
        },
        {
          "internalType": "address",
          "name": "_cEthAddress",
          "type": "address"
        }
      ],
      "stateMutability": "nonpayable",
      "type": "constructor"
    },
    {
      "inputs": [],
      "name": "admin",
      "outputs": [
        {
          "internalType": "address",
          "name": "",
          "type": "address"
        }
      ],
      "stateMutability": "view",
      "type": "function",
      "constant": true
    },
    {
      "inputs": [],
      "name": "cEth",
      "outputs": [
        {
          "internalType": "contract CEthInterface",
          "name": "",
          "type": "address"
        }
      ],
      "stateMutability": "view",
      "type": "function",
      "constant": true
    },
    {
      "inputs": [],
      "name": "comptroller",
      "outputs": [
        {
          "internalType": "contract ComptrollerInterface",
          "name": "",
          "type": "address"
        }
      ],
      "stateMutability": "view",
      "type": "function",
      "constant": true
    },
    {
      "inputs": [
        {
          "internalType": "address",
          "name": "cTokenAddress",
          "type": "address"
        }
      ],
      "name": "getUnderlyingBalance",
      "outputs": [
        {
          "internalType": "uint256",
          "name": "",
          "type": "uint256"
        }
      ],
      "stateMutability": "nonpayable",
      "type": "function"
    },
    {
      "inputs": [],
      "name": "getUnderlyingEthBalance",
      "outputs": [
        {
          "internalType": "uint256",
          "name": "",
          "type": "uint256"
        }
      ],
      "stateMutability": "nonpayable",
      "type": "function"
    },
    {
      "inputs": [
        {
          "internalType": "address",
          "name": "cTokenAddress",
          "type": "address"
        }
      ],
      "name": "getcTokenBalance",
      "outputs": [
        {
          "internalType": "uint256",
          "name": "",
          "type": "uint256"
        }
      ],
      "stateMutability": "view",
      "type": "function",
      "constant": true
    },
    {
      "stateMutability": "payable",
      "type": "receive",
      "payable": true
    },
    {
      "inputs": [
        {
          "internalType": "address",
          "name": "cTokenAddress",
          "type": "address"
        },
        {
          "internalType": "uint256",
          "name": "underlyingAmount",
          "type": "uint256"
        }
      ],
      "name": "deposit",
      "outputs": [],
      "stateMutability": "nonpayable",
      "type": "function"
    },
    {
      "inputs": [
        {
          "internalType": "address",
          "name": "cTokenAddress",
          "type": "address"
        },
        {
          "internalType": "uint256",
          "name": "underlyingAmount",
          "type": "uint256"
        },
        {
          "internalType": "address",
          "name": "recipient",
          "type": "address"
        }
      ],
      "name": "withdraw",
      "outputs": [],
      "stateMutability": "nonpayable",
      "type": "function"
    },
    {
      "inputs": [
        {
          "internalType": "uint256",
          "name": "underlyingAmount",
          "type": "uint256"
        },
        {
          "internalType": "address payable",
          "name": "recipient",
          "type": "address"
        }
      ],
      "name": "withdrawEth",
      "outputs": [],
      "stateMutability": "nonpayable",
      "type": "function"
    }
  ],
  "bytecode": "0x608060405234801561001057600080fd5b506040516117093803806117098339818101604052604081101561003357600080fd5b8101908080519060200190929190805190602001909291905050508181816000806101000a81548173ffffffffffffffffffffffffffffffffffffffff021916908373ffffffffffffffffffffffffffffffffffffffff16021790555080600160006101000a81548173ffffffffffffffffffffffffffffffffffffffff021916908373ffffffffffffffffffffffffffffffffffffffff160217905550505033600260006101000a81548173ffffffffffffffffffffffffffffffffffffffff021916908373ffffffffffffffffffffffffffffffffffffffff16021790555050506115e4806101256000396000f3fe60806040526004361061008a5760003560e01c8063703d795c11610059578063703d795c1461021b578063a158657c14610246578063a44026a3146102a1578063f0d23e8f146102e2578063f851a440146103475761009a565b80631031cb5f1461009f57806347e7ef24146101045780635fe3b5671461015f57806369328dec146101a05761009a565b3661009a5761009834610388565b005b600080fd5b3480156100ab57600080fd5b506100ee600480360360208110156100c257600080fd5b81019080803573ffffffffffffffffffffffffffffffffffffffff16906020019092919050505061040e565b6040518082815260200191505060405180910390f35b34801561011057600080fd5b5061015d6004803603604081101561012757600080fd5b81019080803573ffffffffffffffffffffffffffffffffffffffff169060200190929190803590602001909291905050506104b9565b005b34801561016b57600080fd5b50610174610663565b604051808273ffffffffffffffffffffffffffffffffffffffff16815260200191505060405180910390f35b3480156101ac57600080fd5b50610219600480360360608110156101c357600080fd5b81019080803573ffffffffffffffffffffffffffffffffffffffff16906020019092919080359060200190929190803573ffffffffffffffffffffffffffffffffffffffff169060200190929190505050610687565b005b34801561022757600080fd5b50610230610a01565b6040518082815260200191505060405180910390f35b34801561025257600080fd5b5061029f6004803603604081101561026957600080fd5b8101908080359060200190929190803573ffffffffffffffffffffffffffffffffffffffff169060200190929190505050610ace565b005b3480156102ad57600080fd5b506102b6610dd1565b604051808273ffffffffffffffffffffffffffffffffffffffff16815260200191505060405180910390f35b3480156102ee57600080fd5b506103316004803603602081101561030557600080fd5b81019080803573ffffffffffffffffffffffffffffffffffffffff169060200190929190505050610df7565b6040518082815260200191505060405180910390f35b34801561035357600080fd5b5061035c610ea4565b604051808273ffffffffffffffffffffffffffffffffffffffff16815260200191505060405180910390f35b600160009054906101000a900473ffffffffffffffffffffffffffffffffffffffff1673ffffffffffffffffffffffffffffffffffffffff16631249c58b826040518263ffffffff1660e01b81526004016000604051808303818588803b1580156103f257600080fd5b505af1158015610406573d6000803e3d6000fd5b505050505050565b60008173ffffffffffffffffffffffffffffffffffffffff166370a08231306040518263ffffffff1660e01b8152600401808273ffffffffffffffffffffffffffffffffffffffff16815260200191505060206040518083038186803b15801561047757600080fd5b505afa15801561048b573d6000803e3d6000fd5b505050506040513d60208110156104a157600080fd5b81019080805190602001909291905050509050919050565b600260009054906101000a900473ffffffffffffffffffffffffffffffffffffffff1673ffffffffffffffffffffffffffffffffffffffff163373ffffffffffffffffffffffffffffffffffffffff161461057c576040517f08c379a000000000000000000000000000000000000000000000000000000000815260040180806020018281038252600a8152602001807f6f6e6c792061646d696e0000000000000000000000000000000000000000000081525060200191505060405180910390fd5b600061058783610eca565b90508073ffffffffffffffffffffffffffffffffffffffff166323b872dd3330856040518463ffffffff1660e01b8152600401808473ffffffffffffffffffffffffffffffffffffffff1681526020018373ffffffffffffffffffffffffffffffffffffffff1681526020018281526020019350505050602060405180830381600087803b15801561061857600080fd5b505af115801561062c573d6000803e3d6000fd5b505050506040513d602081101561064257600080fd5b81019080805190602001909291905050505061065e8383610f54565b505050565b60008054906101000a900473ffffffffffffffffffffffffffffffffffffffff1681565b600260009054906101000a900473ffffffffffffffffffffffffffffffffffffffff1673ffffffffffffffffffffffffffffffffffffffff163373ffffffffffffffffffffffffffffffffffffffff161461074a576040517f08c379a000000000000000000000000000000000000000000000000000000000815260040180806020018281038252600a8152602001807f6f6e6c792061646d696e0000000000000000000000000000000000000000000081525060200191505060405180910390fd5b8161075484610df7565b10156107c8576040517f08c379a000000000000000000000000000000000000000000000000000000000815260040180806020018281038252600f8152602001807f62616c616e636520746f6f206c6f77000000000000000000000000000000000081525060200191505060405180910390fd5b6107d061117d565b6107da8383611220565b60006107e584610eca565b90508073ffffffffffffffffffffffffffffffffffffffff1663a9059cbb83856040518363ffffffff1660e01b8152600401808373ffffffffffffffffffffffffffffffffffffffff16815260200182815260200192505050602060405180830381600087803b15801561085857600080fd5b505af115801561086c573d6000803e3d6000fd5b505050506040513d602081101561088257600080fd5b810190808051906020019092919050505050600061089e611316565b9050600081905060008173ffffffffffffffffffffffffffffffffffffffff166370a08231306040518263ffffffff1660e01b8152600401808273ffffffffffffffffffffffffffffffffffffffff16815260200191505060206040518083038186803b15801561090e57600080fd5b505afa158015610922573d6000803e3d6000fd5b505050506040513d602081101561093857600080fd5b810190808051906020019092919050505090508173ffffffffffffffffffffffffffffffffffffffff1663a9059cbb86836040518363ffffffff1660e01b8152600401808373ffffffffffffffffffffffffffffffffffffffff16815260200182815260200192505050602060405180830381600087803b1580156109bc57600080fd5b505af11580156109d0573d6000803e3d6000fd5b505050506040513d60208110156109e657600080fd5b81019080805190602001909291905050505050505050505050565b6000600160009054906101000a900473ffffffffffffffffffffffffffffffffffffffff1673ffffffffffffffffffffffffffffffffffffffff16633af9e669306040518263ffffffff1660e01b8152600401808273ffffffffffffffffffffffffffffffffffffffff168152602001915050602060405180830381600087803b158015610a8e57600080fd5b505af1158015610aa2573d6000803e3d6000fd5b505050506040513d6020811015610ab857600080fd5b8101908080519060200190929190505050905090565b600260009054906101000a900473ffffffffffffffffffffffffffffffffffffffff1673ffffffffffffffffffffffffffffffffffffffff163373ffffffffffffffffffffffffffffffffffffffff1614610b91576040517f08c379a000000000000000000000000000000000000000000000000000000000815260040180806020018281038252600a8152602001807f6f6e6c792061646d696e0000000000000000000000000000000000000000000081525060200191505060405180910390fd5b81610b9a610a01565b1015610c0e576040517f08c379a000000000000000000000000000000000000000000000000000000000815260040180806020018281038252600f8152602001807f62616c616e636520746f6f206c6f77000000000000000000000000000000000081525060200191505060405180910390fd5b610c1661117d565b610c1f826113bf565b8073ffffffffffffffffffffffffffffffffffffffff166108fc839081150290604051600060405180830381858888f19350505050158015610c65573d6000803e3d6000fd5b506000610c70611316565b9050600081905060008173ffffffffffffffffffffffffffffffffffffffff166370a08231306040518263ffffffff1660e01b8152600401808273ffffffffffffffffffffffffffffffffffffffff16815260200191505060206040518083038186803b158015610ce057600080fd5b505afa158015610cf4573d6000803e3d6000fd5b505050506040513d6020811015610d0a57600080fd5b810190808051906020019092919050505090508173ffffffffffffffffffffffffffffffffffffffff1663a9059cbb85836040518363ffffffff1660e01b8152600401808373ffffffffffffffffffffffffffffffffffffffff16815260200182815260200192505050602060405180830381600087803b158015610d8e57600080fd5b505af1158015610da2573d6000803e3d6000fd5b505050506040513d6020811015610db857600080fd5b8101908080519060200190929190505050505050505050565b600160009054906101000a900473ffffffffffffffffffffffffffffffffffffffff1681565b60008173ffffffffffffffffffffffffffffffffffffffff16633af9e669306040518263ffffffff1660e01b8152600401808273ffffffffffffffffffffffffffffffffffffffff168152602001915050602060405180830381600087803b158015610e6257600080fd5b505af1158015610e76573d6000803e3d6000fd5b505050506040513d6020811015610e8c57600080fd5b81019080805190602001909291905050509050919050565b600260009054906101000a900473ffffffffffffffffffffffffffffffffffffffff1681565b60008173ffffffffffffffffffffffffffffffffffffffff16636f307dc36040518163ffffffff1660e01b815260040160206040518083038186803b158015610f1257600080fd5b505afa158015610f26573d6000803e3d6000fd5b505050506040513d6020811015610f3c57600080fd5b81019080805190602001909291905050509050919050565b600082905060008173ffffffffffffffffffffffffffffffffffffffff16636f307dc36040518163ffffffff1660e01b815260040160206040518083038186803b158015610fa157600080fd5b505afa158015610fb5573d6000803e3d6000fd5b505050506040513d6020811015610fcb57600080fd5b810190808051906020019092919050505090508073ffffffffffffffffffffffffffffffffffffffff1663095ea7b385856040518363ffffffff1660e01b8152600401808373ffffffffffffffffffffffffffffffffffffffff16815260200182815260200192505050602060405180830381600087803b15801561104f57600080fd5b505af1158015611063573d6000803e3d6000fd5b505050506040513d602081101561107957600080fd5b81019080805190602001909291905050505060008273ffffffffffffffffffffffffffffffffffffffff1663a0712d68856040518263ffffffff1660e01b815260040180828152602001915050602060405180830381600087803b1580156110e057600080fd5b505af11580156110f4573d6000803e3d6000fd5b505050506040513d602081101561110a57600080fd5b8101908080519060200190929190505050905060008114611176576040517f08c379a00000000000000000000000000000000000000000000000000000000081526004018080602001828103825260408152602001806115206040913960400191505060405180910390fd5b5050505050565b60008054906101000a900473ffffffffffffffffffffffffffffffffffffffff1673ffffffffffffffffffffffffffffffffffffffff1663e9af0292306040518263ffffffff1660e01b8152600401808273ffffffffffffffffffffffffffffffffffffffff168152602001915050600060405180830381600087803b15801561120657600080fd5b505af115801561121a573d6000803e3d6000fd5b50505050565b600082905060008173ffffffffffffffffffffffffffffffffffffffff1663852a12e3846040518263ffffffff1660e01b815260040180828152602001915050602060405180830381600087803b15801561127a57600080fd5b505af115801561128e573d6000803e3d6000fd5b505050506040513d60208110156112a457600080fd5b8101908080519060200190929190505050905060008114611310576040517f08c379a00000000000000000000000000000000000000000000000000000000081526004018080602001828103825260518152602001806114cf6051913960600191505060405180910390fd5b50505050565b60008060009054906101000a900473ffffffffffffffffffffffffffffffffffffffff1673ffffffffffffffffffffffffffffffffffffffff16639d1b5a0a6040518163ffffffff1660e01b815260040160206040518083038186803b15801561137f57600080fd5b505afa158015611393573d6000803e3d6000fd5b505050506040513d60208110156113a957600080fd5b8101908080519060200190929190505050905090565b6000600160009054906101000a900473ffffffffffffffffffffffffffffffffffffffff1673ffffffffffffffffffffffffffffffffffffffff1663852a12e3836040518263ffffffff1660e01b81526004018082815260200191505060206040518083038186803b15801561143457600080fd5b505afa158015611448573d6000803e3d6000fd5b505050506040513d602081101561145e57600080fd5b81019080805190602001909291905050509050600081146114ca576040517f08c379a000000000000000000000000000000000000000000000000000000000815260040180806020018281038252604f815260200180611560604f913960600191505060405180910390fd5b505056fe63546f6b656e2372656465656d556e6465726c79696e672829206661696c65642e2073656520436f6d706f756e64204572726f725265706f727465722e736f6c20666f72206d6f72652064657461696c7363546f6b656e236d696e742829206661696c65642e2073656520436f6d706f756e64204572726f725265706f727465722e736f6c20666f722064657461696c73634574682372656465656d556e6465726c79696e672829206661696c65642e2073656520436f6d706f756e64204572726f725265706f727465722e736f6c20666f72206d6f72652064657461696c73a26469706673582212208cca3dfe1feaba390c84669c7bdffb0062fe567c215c6d12a3b9f5ec5f5aad8464736f6c63430007030033",
  "immutableReferences": {},
  "source": "// SPDX-License-Identifier: MIT\n// Copyright (c) 2022 Jules - Core Labs\npragma solidity ^0.7.3;\n\nimport '@openzeppelin/contracts/token/ERC20/IERC20.sol';\nimport './Compound.sol';\n\ncontract Wallet is Compound {\n  address public admin;\n\n  constructor(\n    address _comptroller, \n    address _cEthAddress\n  ) Compound(_comptroller, _cEthAddress) {\n    admin = msg.sender;\n  }\n\n  function deposit(\n    address cTokenAddress, \n    uint underlyingAmount\n  ) \n    onlyAdmin()\n    external \n  {\n    address underlyingAddress = getUnderlyingAddress(cTokenAddress);\n    IERC20(underlyingAddress).transferFrom(msg.sender, address(this), underlyingAmount);\n    supply(cTokenAddress, underlyingAmount);\n  }\n\n  function withdraw(\n    address cTokenAddress, \n    uint underlyingAmount,\n    address recipient\n  ) \n    onlyAdmin()\n    external  \n  {\n    require(\n      getUnderlyingBalance(cTokenAddress) >= underlyingAmount, \n      'balance too low'\n    );\n    claimComp();\n    redeem(cTokenAddress, underlyingAmount);\n\n    address underlyingAddress = getUnderlyingAddress(cTokenAddress); \n    IERC20(underlyingAddress).transfer(recipient, underlyingAmount);\n\n    address compAddress = getCompAddress(); \n    IERC20 compToken = IERC20(compAddress);\n    uint compAmount = compToken.balanceOf(address(this));\n    compToken.transfer(recipient, compAmount);\n  }\n\n  function withdrawEth(\n    uint underlyingAmount,\n    address payable recipient\n  ) \n    onlyAdmin()\n    external  \n  {\n    require(\n      getUnderlyingEthBalance() >= underlyingAmount, \n      'balance too low'\n    );\n    claimComp();\n    redeemEth(underlyingAmount);\n\n    recipient.transfer(underlyingAmount);\n\n    address compAddress = getCompAddress(); \n    IERC20 compToken = IERC20(compAddress);\n    uint compAmount = compToken.balanceOf(address(this));\n    compToken.transfer(recipient, compAmount);\n  }\n\n  receive() external payable {\n    supplyEth(msg.value);\n  }\n\n  modifier onlyAdmin() {\n    require(msg.sender == admin, 'only admin');\n    _;\n  }\n}",
  "sourcePath": "/Users/daniele/Documents/GitHub/Portafolio/core_smart_wallet/contracts/Wallet.sol",
  "compiler": {
    "name": "solc",
    "version": "0.7.3+commit.9bfce1f6.Emscripten.clang"
  },
  "schemaVersion": "3.4.6",
  "updatedAt": "2022-05-16T13:04:58.237Z",
  "networkType": "ethereum",
  "devdoc": {
    "kind": "dev",
    "methods": {},
    "version": 1
  },
  "userdoc": {
    "kind": "user",
    "methods": {},
    "version": 1
  }
}